:1000000045C0000061C000005FC000005DC000008E
:100010005BC0000059C0000057C0000055C0000080
:1000200053C0000051C000004FC000004DC0000090
:100030004BC0000049C0000047C0000045C00000A0
:10004000AEC0000041C000008BC000003DC00000F9
:100050003BC0000039C0000037C0000035C00000C0
:1000600033C0000031C000002FC000002DC00000D0
:100070002BC0000029C0000027C0000025C00000E0
:1000800023C0000021C000001FC0000011241FBEBB
:10009000CFEFD0E1DEBFCDBF11E0A0E0B1E0E4ECF6
:1000A000F2E100E00BBF02C007900D92A232B1074F
:1000B000D9F722E0A2E2B1E001C01D92A139B20756
:1000C000E1F729D50C9460099BCF2CB53DB5232BC6
:1000D000E1F325E535E545E051E40E94FD0820E027
:1000E00030E048E453E4D2D6A1D7673881E07807FE
:1000F00034F46A3071052CF46AE070E002C066E8FE
:1001000071E0CB01089690938500809384009BBD9D
:100110008ABD68507109709387006093860079BD2D
:1001200068BD0895CF9318BA88E8A5D683E4A3D60E
:10013000C1E0C8BB18BA80E99ED680E09CD6C8BB97
:1001400018BA80E298D6C8BBCF91089597B1907F36
:10015000890F87B9369A349BFECF84B195B1089543
:100160001F920F920FB60F9211240BB60F928F931E
:10017000EF93FF93E091480281E08E0F8093480255
:10018000F0E08CB1E45DFE4F8083FF91EF918F91A1
:100190000F900BBE0F900FBE0F901F9018951F92DF
:1001A0000F920FB60F9211240BB60F924F925F92DF
:1001B0006F927F928F929F92AF92BF92CF92DF9277
:1001C000EF92FF922F933F934F935F936F937F93A1
:1001D0008F939F93AF93BF93EF93FF93CF93DF934F
:1001E000CDB7DEB72897DEBFCDBFC0900C01D09051
:1001F0000D01E0900E01F0900F01609104017091EB
:100200000501809106019091070120E030E0A901ED
:10021000F4D76D837E838F83988783E882BF21E044
:1002200025BB80E093DFBC01990F880B990B31D778
:1002300060936B0270936C0280936D0290936E02D8
:1002400018BA88EE18D681E088BB18BA88E613D6AB
:1002500017D6882E912CA12CB12CBA2CA92C982C15
:1002600088240ED6882ABA2CA92C982C882408D643
:10027000882ABA2CA92C982C882402D691E098BB05
:10028000882AB094A09490948094811C911CA11C05
:10029000B11C8092770290927802A0927902B0927B
:1002A0007A0283E085BB6091770270917802809139
:1002B000790290917A02EDD620E030E042EA58E4EB
:1002C0004DD69B01AC01E2D52BED3FE049E450E473
:1002D00094D760937C0270937D0280937E0290930A
:1002E0007F0290916A0289E2989F812D1124829564
:1002F0008F7024E6829F901911249111CAC0109228
:100300006A0260918C0270918D0280918E029091B0
:100310008F0220E030E0A9011DD6882344F48091AB
:100320008C0290918D02A0918E02B0918F0260910B
:100330008C0270918D0280918E0290918F0220919B
:100340007C0230917D0240917E0250917F029DD5CA
:1003500060932C0270932D0280932E0290932F02B3
:1003600060912C0270912D0280912E0290912F02AB
:1003700020916202309163024091640250916502C3
:1003800084D56093490270934A0280934B02909304
:100390004C0260912C0270912D0280912E0290915E
:1003A0002F022091140130911501409116015091B6
:1003B00017018090490290904A02A0904B02B090A1
:1003C0004C02409010015090110160901201709009
:1003D000130113D769837A838B839C83A3019201D2
:1003E000C501B4010AD79B01AC0169817A818B8177
:1003F0009C814CD560936F02709370028093710260
:100400009093720260916F027091700280917102FC
:10041000909172022DEE32EE4DEF50E4EAD61816AE
:100420006CF48DEE92EEADEFB0E480936F0290939A
:100430007002A0937102B09372021BC060916F02B0
:100440007091700280917102909172022DEE32EEE5
:100450004DEF50EC7FD5882364F48DEE92EEADEF36
:10046000B0EC80936F0290937002A0937102B093EE
:10047000720280912C0290912D02A0912E02B091D7
:100480002F028093620290936302A0936402B09360
:10049000650220916A028DEC289F812D112486959A
:1004A00086958695880F982F990F990F890F281395
:1004B00084C160916F02709170028091710290917D
:1004C000720220911D0130911E0140911F01509137
:1004D00020018FD618168CF480911D0190911E0179
:1004E000A0911F01B091200180936F029093700240
:1004F000A0937102B093720227C080911D01909168
:100500001E01A0911F01B091200120916F02309136
:1005100070024091710250917202BC01CD0190585D
:1005200068D618168CF480911D0190911E01A0913F
:100530001F01B0912001B05880936F029093700218
:10054000A0937102B093720220E030E0A901C701CC
:10055000B60153D669837A838B839C8380916F0223
:1005600090917002A0917102B0917202809380020A
:1005700090938102A0938202B093830260917C02E7
:1005800070917D0280917E0290917F022091840281
:1005900030918502409186025091870276D42AE0FC
:1005A00037ED43EA5BE3DAD46093240170932501CD
:1005B000809326019093270180917C0290917D0287
:1005C000A0917E02B0917F02809384029093850275
:1005D000A0938602B093870260918002709181029D
:1005E0008091820290918302209124013091250113
:1005F000409126015091270148D460937302709373
:10060000740280937502909376024090730250902A
:100610007402609075027090760280900C01909048
:100620000D01A0900E01B0900F01609144027091F5
:100630004502809146029091470220910801309135
:10064000090140910A0150910B01D7D52AE037EDFD
:1006500043EA5BE3D2D56B017C01A5019401C301A0
:10066000B201CBD59B01AC01C701B6010FD4609399
:1006700066027093670280936802909369026091AA
:1006800073027091740280917502909176022091AC
:100690004402309145024091460250914702F6D300
:1006A0006093440270934502809346029093470200
:1006B0006091660270916702809168029091690270
:1006C00028EB3EE145E050E494D51816A4F560917E
:1006D0006602709167028091680290916902C090F1
:1006E0004402D0904502E0904602F090470228EB89
:1006F0003EE145E050E4C9D329813A814B815C81D8
:100700007CD59B01AC01C701B601BFD36093440205
:1007100070934502809346029093470288EB9EE1D6
:10072000A5E0B0E48093660290936702A09368020C
:10073000B093690242C06091660270916702809135
:1007400068029091690228EB3EE145E050EC02D44A
:1007500088239CF56091660270916702809168021F
:1007600090916902C0904402D0904502E090460208
:10077000F090470228EB3EE145E050E487D3298121
:100780003A814B815C8139D59B01AC01C701B6012F
:100790007CD3609344027093450280934602909309
:1007A000470288EB9EE1A5E0B0EC8093660290934F
:1007B0006702A0936802B093690280916A028F5F1A
:1007C00080936A026091660270916702809168026C
:1007D000909169022091190130911A0140911B01F9
:1007E00050911C0106D518168CF480911901909136
:1007F0001A01A0911B01B0911C0180936602909395
:100800006702A0936802B093690227C08091190122
:1008100090911A01A0911B01B0911C0120916602D8
:10082000309167024091680250916902BC01CD018C
:100830009058DFD418168CF48091190190911A0108
:10084000A0911B01B0911C01B05880936602909357
:100850006702A0936802B09369028091660290914A
:100860006702A0916802B091690280934002909360
:100870004102A0934202B093430260916B027091D7
:100880006C0280916D0290916E0220E030E040E8B1
:100890005AE3B3D420E030E040EA50E4AED420E0A4
:1008A00030E040E250E4F1D220E030E040E251E4B8
:1008B000A4D4DC01CB01B05880933A0290933B0260
:1008C000A0933C02B0933D026091400270914102BE
:1008D000809142029091430220913A0230913B0272
:1008E00040913C0250913D02D0D26093300270930F
:1008F00031028093320290933302809030029090C4
:100900003102A0903202B090330240900401509026
:100910000501609006017090070160918802709156
:10092000890280918A0290918B022091000130917E
:10093000010140910201509103015FD42FE632E1A1
:1009400043E05AE35AD46B017C01A3019201C50133
:10095000B40153D49B01AC01C701B60197D266D351
:1009600070933F0260933E026091240170912501D3
:100970008091260190912701E0903E02F0903F0285
:100980002FED30EE4BE85DE338D44B015C01B7014D
:10099000FF0C880B990B7DD39B01AC01C501B40101
:1009A00075D244D370933F0260933E02609130024F
:1009B000709131028091320290913302209188022D
:1009C0003091890240918A0250918B025FD26093EC
:1009D00088027093890280938A0290938B0280919F
:1009E0003E0290913F02499764F160913E027091FE
:1009F0003F02C0908802D0908902E0908A02F09075
:100A00008B0268517109072E000C880B990B41D39A
:100A10002D813E814F815885F0D39B01AC01C701E8
:100A2000B60133D2609388027093890280938A0260
:100A300090938B0288E190E090933F0280933E0276
:100A400030C080913E0290913F02883E9F4F4CF50E
:100A500060913E0270913F02C0908802D09089025E
:100A6000E0908A02F0908B02685E7F4F072E000CA8
:100A7000880B990B0ED32D813E814F815885BDD3B4
:100A8000A701960103D26093880270938902809334
:100A90008A0290938B0288EE9FEF90933F0280939F
:100AA0003E0260913E0270913F02072E000C880BBF
:100AB000990BEFD20ADB80912201909123010196DC
:100AC000909323018093220128960FB6F894DEBFFD
:100AD0000FBECDBFDF91CF91FF91EF91BF91AF914D
:100AE0009F918F917F916F915F914F913F912F9146
:100AF000FF90EF90DF90CF90BF90AF909F908F903E
:100B00007F906F905F904F900F900BBE0F900FBE35
:100B10000F901F901895CF93DF93CDB7DEB76497F2
:100B20000FB6F894DEBF0FBECDBF8EEF8C838B83E4
:100B30008A83898347D18DD195D151D155D167D140
:100B400010928900109288001DBC1CBC60E070E00F
:100B5000CB01BBDA79D1E6DA83E882BF7894B12C95
:100B60000F2EF4E19F2EF02D0F2EF3E0AF2EF02D7F
:100B70007E0185E1E80EF11C0F2EFEE4CF2EF2E09F
:100B8000DF2EF02D6894772471F888248394BAC0FE
:100B9000809190028130E1F018F08230E1F1ADC037
:100BA000E0917B02F0E0E45DFE4F80818F3F69F4CD
:100BB00080914D028F5F80934D0280914D02843071
:100BC00009F09BC08092900298C010924D0295C08F
:100BD000E0914D0281E08E0F80934D02F0E0A091F4
:100BE0007B02B0E0A45DBE4F8C91E25BFD4F808341
:100BF00080914D02883009F080C0F6019581809186
:100C00001801981303C07092900277C0109290025E
:100C100010924D0272C0E0914D0281E08E0F8093E0
:100C20004D02F0E0A0917B02B0E0A45DBE4F8C913C
:100C3000E25BFD4F8083E0917B02F0E0E45DFE4FDC
:100C40008081B80EF601948180914D02981344C0C2
:100C50008781B8123BC086818230C1F5608571857D
:100C60008285938516D220E030E04AE754E476D1BD
:100C700060938C0270938D0280938E0290938F020A
:100C8000F601648575858685978503D220E030E07E
:100C90004AE754E463D160931D0170931E01809371
:100CA0001F0190932001F6016089718982899389DF
:100CB000F0D120E030E04AE754E450D160931901CC
:100CC00070931A0180931B0190931C011092900263
:100CD00010924D02B12C11C0F601948180914D0209
:100CE000981720F080914D02853138F086E6BFD00C
:100CF0001092900210924D02B12C80917B028F5F76
:100D000080937B0290917B0280914802981340CFA0
:100D100080912201909123014497A4F31092230122
:100D200010922201809118018E839D82AF821886D5
:100D300060917C0270917D0280917E0290917F0291
:100D400020E030E04AE754E458D270D169877A87CE
:100D50008B879C87609124017091250180912601E9
:100D60009091270120E030E04AE754E446D25ED17A
:100D70006D877E878F87988B60913A0270913B02D6
:100D800080913C0290913D0220E030E04AE754E43B
:100D900034D24CD1698B7A8B8B8B9C8BFE0139962C
:100DA00081919885890F8887EE15FF05C9F78E0117
:100DB0000F5F1F4FF80181918F0159D00E151F054C
:100DC000C9F7A0CF8FEF8ABB84BB88E081BB87E6E1
:100DD00087BB8AE182B91BBA87E088BB089584E0AB
:100DE00083BF81E087BF089582EE8FBD81E18EBD14
:100DF0008FE891E097BD86BD10927900109278003F
:100E00001BBC1ABC19BC18BC1DBC1CBC089582EBD1
:100E100080938B0081E180938A008FE891E090932A
:100E200081008093800010928300109282001092C3
:100E30008700109286001092850010928400109214
:100E4000890010928800089580E487B986E886B901
:100E500008951BB888E98AB986E08093950087E6F3
:100E600089B9089580E58DB981E08EB908955D9BBB
:100E7000FECF8CB908958FB9779BFECF8FB10895BF
:100E80001FB8779BFECF8FB108955058BB27AA2774
:100E90000ED075C166D130F06BD120F031F49F3F98
:100EA00011F41EF45BC10EF4E095E7FB51C1E92F8C
:100EB00077D180F3BA17620773078407950718F094
:100EC00071F49EF58FC10EF4E0950B2EBA2FA02D74
:100ED0000B01B90190010C01CA01A0011124FF27E7
:100EE000591B99F0593F50F4503E68F11A16F040E2
:100EF000A22F232F342F4427585FF3CF46953795E1
:100F00002795A795F0405395C9F77EF41F16BA0BA5
:100F1000620B730B840BBAF09150A1F0FF0FBB1F53
:100F2000661F771F881FC2F70EC0BA0F621F731F9C
:100F3000841F48F4879577956795B795F7959E3FF9
:100F400008F0B3CF9395880F08F09927EE0F979587
:100F500087950895D9D008F481E008950CD00FC189
:100F600007D140F0FED030F021F45F3F19F0F0C01F
:100F7000511139C1F3C014D198F39923C9F3552302
:100F8000B1F3951B550BBB27AA276217730784077C
:100F900038F09F5F5F4F220F331F441FAA1FA9F332
:100FA00033D00E2E3AF0E0E830D091505040E69524
:100FB000001CCAF729D0FE2F27D0660F771F881F85
:100FC000BB1F261737074807AB07B0E809F0BB0B74
:100FD000802DBF01FF2793585F4F2AF09E3F510598
:100FE00068F0B6C000C15F3FECF3983EDCF3869535
:100FF00077956795B795F7959F5FC9F7880F911D0E
:101000009695879597F90895E1E0660F771F881FF9
:10101000BB1F621773078407BA0720F0621B730BAC
:10102000840BBA0BEE1F88F7E095089504D06894FE
:10103000B111D9C00895BCD088F09F5790F0B92F56
:101040009927B751A0F0D1F0660F771F881F991F1D
:101050001AF0BA95C9F712C0B13081F0C3D0B1E02F
:101060000895C0C0672F782F8827B85F39F0B93F3F
:10107000CCF3869577956795B395D9F73EF490951F
:101080008095709561957F4F8F4F9F4F0895E8949D
:1010900009C097FB3EF490958095709561957F4FC0
:1010A0008F4F9F4F9923A9F0F92F96E9BB2793956E
:1010B000F695879577956795B795F111F8CFFAF47E
:1010C000BB0F11F460FF1BC06F5F7F4F8F4F9F4FAF
:1010D00016C0882311F096E911C0772321F09EE80D
:1010E000872F762F05C0662371F096E8862F70E073
:1010F00060E02AF09A95660F771F881FDAF7880F4D
:101100009695879597F90895990F0008550FAA0BA2
:10111000E0E8FEEF16161706E807F907C0F012160A
:101120001306E407F50798F0621B730B840B950B0D
:1011300039F40A2661F0232B242B252B21F4089562
:101140000A2609F4A140A6958FEF811D811D0895FF
:1011500097F99F6780E870E060E008959FEF80EC6A
:10116000089500240A94161617061806090608950D
:1011700000240A9412161306140605060895092E73
:101180000394000C11F4882352F0BB0F40F4BF2BE2
:1011900011F460FF04C06F5F7F4F8F4F9F4F089522
:1011A00057FD9058440F551F59F05F3F71F0479518
:1011B000880F97FB991F61F09F3F79F087950895FD
:1011C000121613061406551FF2CF4695F1DF08C01C
:1011D000161617061806991FF1CF86957105610539
:1011E00008940895E894BB2766277727CB0197F9E1
:1011F00008958ADF08F48FEF08950BD0C0CFB1DFD8
:1012000028F0B6DF18F0952309F0A2CFA7CF11245C
:10121000EACFC6DFA0F3959FD1F3950F50E0551F9D
:10122000629FF001729FBB27F00DB11D639FAA273B
:10123000F00DB11DAA1F649F6627B00DA11D661F8A
:10124000829F2227B00DA11D621F739FB00DA11DAB
:10125000621F839FA00D611D221F749F3327A00D65
:10126000611D231F849F600D211D822F762F6A2F01
:1012700011249F5750408AF0E1F088234AF0EE0F86
:10128000FF1FBB1F661F771F881F91505040A9F793
:101290009E3F510570F05CCFA6CF5F3FECF3983EC8
:1012A000DCF3869577956795B795F795E7959F5FFA
:1012B000C1F7FE2B880F911D9695879597F9089594
:0412C000F894FFCFD0
:1012C400006006459A99193F0000D0400AD7A33E12
:1012D4003333333F00003041010000803F00008081
:0212E4003F00C9
:00000001FF
